:10000000F72F00308A000408840A8207003406347F
:0A00100002340134003401340134DD
:100CC60001340334023483120313061286127408A5
:100CD600F1007308F000B226C5260800831203133C
:100CE6002308013E84000120F00005083039700415
:100CF60085000800831203132308F3007308F0002D
:100D06000030ED2600308312031386180130F00000
:100D16000130ED2608008312031306118316031310
:100D26000611C830F0000030F100B2268316031316
:100D360006158312031306150800831203132308EE
:100D4600043E84000120F000700C031CAE2E8312BA
:100D56000313861408008312031386100800FF305D
:100D6600F0070318F10AFF30F107700A0319710A38
:100D760003190800F930F2000000F20BBF2EC32E53
:100D86000000B22E831203132308203E840083132F
:100D96000008F00004300310F00DFF3E031DCE2EB8
:100DA60006080F39700486000800F10064008316F7
:100DB60003139C18D92E71089B003F30F000700871
:100DC6009C051C1403101C18031400300318013072
:100DD6001A080800F200831603139C18EE2E7208F8
:100DE6009B0070089A003F30F10071089C05831241
:100DF600031303108B1B03148B13831603131C1589
:100E060055309D00AA309D009C141C1183120313BB
:100E1600031C08008B170800F5007508031D182F22
:100E2600C830F3000030F4006626831203138618D8
:100E3600272FC830F0000030F100B226C830F3008A
:100E46000030F40066260800F601F7017708803ABC
:100E5600FF0080307F02031D322F03307602031815
:100E660008004B30F0000030F100B2264B30F300A2
:100E76000030F40066260130F6070318F70A003042
:100E8600F707292FFA01FB017B08803AFF00803023
:100E96007F02031D502F03307A020318782F7A0839
:100EA600023ED826F8007808F90079080319672F5A
:100EB600043079020318672F7908F8007A08203E73
:100EC60084007808831380000130FA070318FB0AB0
:100ED6000030FB077B08803AFF0080307F02031D4D
:100EE600762F03307A02031C522F0030D826F800E2
:100EF600780883120313A300033023020318A30107
:100F060071260130D826F800780C031C8E2F831228
:100F160003138614912F831203138610C5260130FE
:100F26000F2708000830831603138E00073083123C
:100F360003139F0086010D308316031386000113E9
:100F46008B170B167F30FC007C0881058312031378
:100F5600850108308316031385004527B92F8E2691
:100F6600B92F023086067D2601300F278B100B160F
:100F760063000530F0000030F100B226831203133F
:100F86000618B92FFA30F0000030F100B2268312AD
:100F960003130618B22FE830F3000330F400662678
:100FA600831203130618B42FFD01E830F000033056
:100FB600F100B226831203130618ED2FFD01FD0A78
:100FC6000130FC007C08A307033023020318A301A9
:100FD600C526D82F7D080319B92F7126A0267D2690
:100FE60000300F278E26B92FA3016326A0006426A2
:0A0FF600A1006526A2008301952FDB
:0440000004000200B6
:02400E0018FF99
:1042000000000000010003000200000000000000A8
:1042100020004800690020003B0029002100200008
:00000001FF
